{
  "_format": "hh-sol-artifact-1",
  "contractName": "LendingBank",
  "sourceName": "contracts/core/LendingBank.sol",
  "abi": [
    {
      "inputs": [],
      "stateMutability": "nonpayable",
      "type": "constructor"
    },
    {
      "inputs": [
        {
          "internalType": "address",
          "name": "owner",
          "type": "address"
        }
      ],
      "name": "OwnableInvalidOwner",
      "type": "error"
    },
    {
      "inputs": [
        {
          "internalType": "address",
          "name": "account",
          "type": "address"
        }
      ],
      "name": "OwnableUnauthorizedAccount",
      "type": "error"
    },
    {
      "inputs": [],
      "name": "ReentrancyGuardReentrantCall",
      "type": "error"
    },
    {
      "anonymous": false,
      "inputs": [
        {
          "indexed": true,
          "internalType": "address",
          "name": "borrower",
          "type": "address"
        },
        {
          "indexed": true,
          "internalType": "uint256",
          "name": "tokenType",
          "type": "uint256"
        },
        {
          "indexed": false,
          "internalType": "uint256",
          "name": "collateralAmount",
          "type": "uint256"
        },
        {
          "indexed": false,
          "internalType": "uint256",
          "name": "penaltyAmount",
          "type": "uint256"
        }
      ],
      "name": "LoanForfeited",
      "type": "event"
    },
    {
      "anonymous": false,
      "inputs": [
        {
          "indexed": true,
          "internalType": "address",
          "name": "borrower",
          "type": "address"
        },
        {
          "indexed": true,
          "internalType": "uint256",
          "name": "tokenType",
          "type": "uint256"
        },
        {
          "indexed": false,
          "internalType": "uint256",
          "name": "tokenAmount",
          "type": "uint256"
        },
        {
          "indexed": false,
          "internalType": "uint256",
          "name": "collateralAmount",
          "type": "uint256"
        },
        {
          "indexed": false,
          "internalType": "uint256",
          "name": "interest",
          "type": "uint256"
        }
      ],
      "name": "LoanRepaid",
      "type": "event"
    },
    {
      "anonymous": false,
      "inputs": [
        {
          "indexed": true,
          "internalType": "address",
          "name": "previousOwner",
          "type": "address"
        },
        {
          "indexed": true,
          "internalType": "address",
          "name": "newOwner",
          "type": "address"
        }
      ],
      "name": "OwnershipTransferred",
      "type": "event"
    },
    {
      "anonymous": false,
      "inputs": [
        {
          "indexed": false,
          "internalType": "uint256",
          "name": "amount",
          "type": "uint256"
        }
      ],
      "name": "ReservesInitialized",
      "type": "event"
    },
    {
      "anonymous": false,
      "inputs": [
        {
          "indexed": false,
          "internalType": "bool",
          "name": "enabled",
          "type": "bool"
        }
      ],
      "name": "TestModeSet",
      "type": "event"
    },
    {
      "anonymous": false,
      "inputs": [
        {
          "indexed": false,
          "internalType": "address",
          "name": "to",
          "type": "address"
        },
        {
          "indexed": false,
          "internalType": "uint256",
          "name": "tokenType",
          "type": "uint256"
        },
        {
          "indexed": false,
          "internalType": "uint256",
          "name": "amount",
          "type": "uint256"
        }
      ],
      "name": "TestTokensMinted",
      "type": "event"
    },
    {
      "anonymous": false,
      "inputs": [
        {
          "indexed": false,
          "internalType": "address",
          "name": "tokenAddress",
          "type": "address"
        },
        {
          "indexed": false,
          "internalType": "uint256",
          "name": "tokenIndex",
          "type": "uint256"
        }
      ],
      "name": "TokenAdded",
      "type": "event"
    },
    {
      "anonymous": false,
      "inputs": [
        {
          "indexed": true,
          "internalType": "address",
          "name": "borrower",
          "type": "address"
        },
        {
          "indexed": true,
          "internalType": "uint256",
          "name": "tokenType",
          "type": "uint256"
        },
        {
          "indexed": false,
          "internalType": "uint256",
          "name": "tokenAmount",
          "type": "uint256"
        },
        {
          "indexed": false,
          "internalType": "uint256",
          "name": "collateralAmount",
          "type": "uint256"
        },
        {
          "indexed": false,
          "internalType": "uint256",
          "name": "deadline",
          "type": "uint256"
        }
      ],
      "name": "TokenBorrowed",
      "type": "event"
    },
    {
      "inputs": [
        {
          "internalType": "address",
          "name": "tokenAddress",
          "type": "address"
        }
      ],
      "name": "addSupportedToken",
      "outputs": [],
      "stateMutability": "nonpayable",
      "type": "function"
    },
    {
      "inputs": [
        {
          "internalType": "uint256",
          "name": "loanId",
          "type": "uint256"
        }
      ],
      "name": "calculateInterest",
      "outputs": [
        {
          "internalType": "uint256",
          "name": "",
          "type": "uint256"
        }
      ],
      "stateMutability": "view",
      "type": "function"
    },
    {
      "inputs": [
        {
          "internalType": "uint256",
          "name": "loanId",
          "type": "uint256"
        }
      ],
      "name": "calculatePenalty",
      "outputs": [
        {
          "internalType": "uint256",
          "name": "",
          "type": "uint256"
        }
      ],
      "stateMutability": "view",
      "type": "function"
    },
    {
      "inputs": [
        {
          "internalType": "uint256",
          "name": "tokenType",
          "type": "uint256"
        },
        {
          "internalType": "uint256",
          "name": "tokenAmount",
          "type": "uint256"
        }
      ],
      "name": "depositAndBorrow",
      "outputs": [
        {
          "internalType": "uint256",
          "name": "loanId",
          "type": "uint256"
        }
      ],
      "stateMutability": "payable",
      "type": "function"
    },
    {
      "inputs": [
        {
          "internalType": "uint256",
          "name": "loanId",
          "type": "uint256"
        }
      ],
      "name": "forfeitLoan",
      "outputs": [],
      "stateMutability": "nonpayable",
      "type": "function"
    },
    {
      "inputs": [
        {
          "internalType": "uint256",
          "name": "loanId",
          "type": "uint256"
        }
      ],
      "name": "getLoan",
      "outputs": [
        {
          "components": [
            {
              "internalType": "address",
              "name": "borrower",
              "type": "address"
            },
            {
              "internalType": "uint256",
              "name": "collateralAmount",
              "type": "uint256"
            },
            {
              "internalType": "uint256",
              "name": "tokenType",
              "type": "uint256"
            },
            {
              "internalType": "uint256",
              "name": "tokenAmount",
              "type": "uint256"
            },
            {
              "internalType": "uint256",
              "name": "issuanceTimestamp",
              "type": "uint256"
            },
            {
              "internalType": "uint256",
              "name": "deadline",
              "type": "uint256"
            },
            {
              "internalType": "uint256",
              "name": "interestAccrued",
              "type": "uint256"
            },
            {
              "internalType": "bool",
              "name": "active",
              "type": "bool"
            }
          ],
          "internalType": "struct ILendingBank.Loan",
          "name": "",
          "type": "tuple"
        }
      ],
      "stateMutability": "view",
      "type": "function"
    },
    {
      "inputs": [],
      "name": "getSupportedTokenCount",
      "outputs": [
        {
          "internalType": "uint256",
          "name": "",
          "type": "uint256"
        }
      ],
      "stateMutability": "view",
      "type": "function"
    },
    {
      "inputs": [
        {
          "internalType": "address",
          "name": "user",
          "type": "address"
        }
      ],
      "name": "getUserLoans",
      "outputs": [
        {
          "internalType": "uint256[]",
          "name": "",
          "type": "uint256[]"
        }
      ],
      "stateMutability": "view",
      "type": "function"
    },
    {
      "inputs": [
        {
          "internalType": "uint256",
          "name": "amount",
          "type": "uint256"
        }
      ],
      "name": "initializeTokenReserves",
      "outputs": [],
      "stateMutability": "nonpayable",
      "type": "function"
    },
    {
      "inputs": [
        {
          "internalType": "uint256",
          "name": "loanId",
          "type": "uint256"
        }
      ],
      "name": "isPastDue",
      "outputs": [
        {
          "internalType": "bool",
          "name": "",
          "type": "bool"
        }
      ],
      "stateMutability": "view",
      "type": "function"
    },
    {
      "inputs": [
        {
          "internalType": "address",
          "name": "to",
          "type": "address"
        },
        {
          "internalType": "uint256",
          "name": "tokenType",
          "type": "uint256"
        },
        {
          "internalType": "uint256",
          "name": "amount",
          "type": "uint256"
        }
      ],
      "name": "mintTestTokens",
      "outputs": [],
      "stateMutability": "nonpayable",
      "type": "function"
    },
    {
      "inputs": [],
      "name": "owner",
      "outputs": [
        {
          "internalType": "address",
          "name": "",
          "type": "address"
        }
      ],
      "stateMutability": "view",
      "type": "function"
    },
    {
      "inputs": [],
      "name": "renounceOwnership",
      "outputs": [],
      "stateMutability": "nonpayable",
      "type": "function"
    },
    {
      "inputs": [
        {
          "internalType": "uint256",
          "name": "loanId",
          "type": "uint256"
        }
      ],
      "name": "repay",
      "outputs": [],
      "stateMutability": "nonpayable",
      "type": "function"
    },
    {
      "inputs": [
        {
          "internalType": "bool",
          "name": "enabled",
          "type": "bool"
        }
      ],
      "name": "setTestMode",
      "outputs": [],
      "stateMutability": "nonpayable",
      "type": "function"
    },
    {
      "inputs": [
        {
          "internalType": "uint256",
          "name": "",
          "type": "uint256"
        }
      ],
      "name": "supportedTokens",
      "outputs": [
        {
          "internalType": "contract ILendingToken",
          "name": "",
          "type": "address"
        }
      ],
      "stateMutability": "view",
      "type": "function"
    },
    {
      "inputs": [],
      "name": "testMode",
      "outputs": [
        {
          "internalType": "bool",
          "name": "",
          "type": "bool"
        }
      ],
      "stateMutability": "view",
      "type": "function"
    },
    {
      "inputs": [
        {
          "internalType": "uint256",
          "name": "loanId",
          "type": "uint256"
        }
      ],
      "name": "timeUntilDue",
      "outputs": [
        {
          "internalType": "uint256",
          "name": "",
          "type": "uint256"
        }
      ],
      "stateMutability": "view",
      "type": "function"
    },
    {
      "inputs": [
        {
          "internalType": "address",
          "name": "newOwner",
          "type": "address"
        }
      ],
      "name": "transferOwnership",
      "outputs": [],
      "stateMutability": "nonpayable",
      "type": "function"
    }
  ],
  "bytecode": "0x60806040526000600660006101000a81548160ff02191690831515021790555034801561002b57600080fd5b5033600073ffffffffffffffffffffffffffffffffffffffff168173ffffffffffffffffffffffffffffffffffffffff160361009f5760006040517f1e4fbdf700000000000000000000000000000000000000000000000000000000815260040161009691906101c0565b60405180910390fd5b6100ae816100bb60201b60201c565b50600180819055506101db565b60008060009054906101000a900473ffffffffffffffffffffffffffffffffffffffff169050816000806101000a81548173ffffffffffffffffffffffffffffffffffffffff021916908373ffffffffffffffffffffffffffffffffffffffff1602179055508173ffffffffffffffffffffffffffffffffffffffff168173ffffffffffffffffffffffffffffffffffffffff167f8be0079c531659141344cd1fd0a4f28419497f9722a3daafe3b4186f6b6457e060405160405180910390a35050565b600073ffffffffffffffffffffffffffffffffffffffff82169050919050565b60006101aa8261017f565b9050919050565b6101ba8161019f565b82525050565b60006020820190506101d560008301846101b1565b92915050565b6127f5806101ea6000396000f3fe6080604052600436106101145760003560e01c8063715018a6116100a0578063c625562611610064578063c6255626146103b2578063cd9ea342146103ef578063ce67be261461041a578063d96648de14610445578063f2fde38b1461048257610114565b8063715018a6146102c65780638da5cb5b146102dd578063a57475e014610308578063a6f5b3b314610345578063b75061bb1461038257610114565b80634ecce451116100e75780634ecce451146101d1578063504006ca1461020e5780635fe467bd1461024b5780636d69fcaf146102745780636eb73b851461029d57610114565b806302bf321f1461011957806302c3d52f146101565780631ff1292f1461017f578063371fd8e6146101a8575b600080fd5b34801561012557600080fd5b50610140600480360381019061013b9190611bc9565b6104ab565b60405161014d9190611cbe565b60405180910390f35b34801561016257600080fd5b5061017d60048036038101906101789190611d0c565b610542565b005b34801561018b57600080fd5b506101a660048036038101906101a19190611d71565b610653565b005b3480156101b457600080fd5b506101cf60048036038101906101ca9190611d0c565b6106af565b005b3480156101dd57600080fd5b506101f860048036038101906101f39190611d0c565b610b11565b6040516102059190611dad565b60405180910390f35b34801561021a57600080fd5b5061023560048036038101906102309190611d0c565b610c2c565b6040516102429190611e88565b60405180910390f35b34801561025757600080fd5b50610272600480360381019061026d9190611d0c565b610d07565b005b34801561028057600080fd5b5061029b60048036038101906102969190611bc9565b610e89565b005b3480156102a957600080fd5b506102c460048036038101906102bf9190611ea4565b610f41565b005b3480156102d257600080fd5b506102db6110c8565b005b3480156102e957600080fd5b506102f26110dc565b6040516102ff9190611f06565b60405180910390f35b34801561031457600080fd5b5061032f600480360381019061032a9190611d0c565b611105565b60405161033c9190611dad565b60405180910390f35b34801561035157600080fd5b5061036c60048036038101906103679190611d0c565b6112de565b6040516103799190611dad565b60405180910390f35b61039c60048036038101906103979190611f21565b611375565b6040516103a99190611dad565b60405180910390f35b3480156103be57600080fd5b506103d960048036038101906103d49190611d0c565b61180a565b6040516103e69190611fc0565b60405180910390f35b3480156103fb57600080fd5b50610404611849565b6040516104119190611fea565b60405180910390f35b34801561042657600080fd5b5061042f61185c565b60405161043c9190611dad565b60405180910390f35b34801561045157600080fd5b5061046c60048036038101906104679190611d0c565b611869565b6040516104799190611fea565b60405180910390f35b34801561048e57600080fd5b506104a960048036038101906104a49190611bc9565b6118e1565b005b6060600560008373ffffffffffffffffffffffffffffffffffffffff1673ffffffffffffffffffffffffffffffffffffffff16815260200190815260200160002080548060200260200160405190810160405280929190818152602001828054801561053657602002820191906000526020600020905b815481526020019060010190808311610522575b50505050509050919050565b61054a611967565b60005b600280549050811015610618576000600282815481106105705761056f612005565b5b9060005260206000200160009054906101000a900473ffffffffffffffffffffffffffffffffffffffff1690508073ffffffffffffffffffffffffffffffffffffffff166340c10f1930856040518363ffffffff1660e01b81526004016105d8929190612034565b600060405180830381600087803b1580156105f257600080fd5b505af1158015610606573d6000803e3d6000fd5b5050505050808060010191505061054d565b507fbf76311fe40c8bdd842a5882c2eceb7265f1112fea7bdbcdb247771dd3f52d1e816040516106489190611dad565b60405180910390a150565b61065b611967565b80600660006101000a81548160ff0219169083151502179055507f193015064435e68d1a47d5b13c0608053447b9a83394da7be739c0b7dba9ef0e816040516106a49190611fea565b60405180910390a150565b6106b76119ee565b60006004600083815260200190815260200160002090508060070160009054906101000a900460ff1661071f576040517f08c379a0000000000000000000000000000000000000000000000000000000008152600401610716906120ba565b60405180910390fd5b3373ffffffffffffffffffffffffffffffffffffffff168160000160009054906101000a900473ffffffffffffffffffffffffffffffffffffffff1673ffffffffffffffffffffffffffffffffffffffff16146107b1576040517f08c379a00000000000000000000000000000000000000000000000000000000081526004016107a890612126565b60405180910390fd5b600060028260020154815481106107cb576107ca612005565b5b9060005260206000200160009054906101000a900473ffffffffffffffffffffffffffffffffffffffff169050600061080384611105565b90506201518060036108159190612175565b836004015461082491906121b7565b4210156108535760646014606461083b91906121eb565b826108469190612175565b610850919061224e565b90505b6000836005015442111561086d5761086a85610b11565b90505b6000829050600083866003015461088491906121b7565b9050600085905060008173ffffffffffffffffffffffffffffffffffffffff166323b872dd3330866040518463ffffffff1660e01b81526004016108ca9392919061227f565b6020604051808303816000875af11580156108e9573d6000803e3d6000fd5b505050506040513d601f19601f8201168201806040525081019061090d91906122cb565b90508061094f576040517f08c379a000000000000000000000000000000000000000000000000000000000815260040161094690612344565b60405180910390fd5b8673ffffffffffffffffffffffffffffffffffffffff16639dc29fac30856040518363ffffffff1660e01b815260040161098a929190612034565b600060405180830381600087803b1580156109a457600080fd5b505af11580156109b8573d6000803e3d6000fd5b5050505060008860070160006101000a81548160ff02191690831515021790555083886006018190555060008589600101546109f491906121eb565b905088600201543373ffffffffffffffffffffffffffffffffffffffff167f85ec8df3a97b90227e1fa3d869c0e8b1c9dc31c409479bc44a4e504d0fc75c818b600301548489604051610a4993929190612364565b60405180910390a33373ffffffffffffffffffffffffffffffffffffffff1681604051610a75906123cc565b60006040518083038185875af1925050503d8060008114610ab2576040519150601f19603f3d011682016040523d82523d6000602084013e610ab7565b606091505b50508092505081610afd576040517f08c379a0000000000000000000000000000000000000000000000000000000008152600401610af49061242d565b60405180910390fd5b505050505050505050610b0e611a34565b50565b6000806004600084815260200190815260200160002090508060070160009054906101000a900460ff16610b7a576040517f08c379a0000000000000000000000000000000000000000000000000000000008152600401610b71906120ba565b60405180910390fd5b80600501544211610b8f576000915050610c27565b6000816005015442610ba191906121eb565b90506203f4808111610bd9576000606460058460010154610bc29190612175565b610bcc919061224e565b9050809350505050610c27565b620546006203f480610beb91906121b7565b8111610c1d5760006064600f8460010154610c069190612175565b610c10919061224e565b9050809350505050610c27565b8160010154925050505b919050565b610c34611b09565b60046000838152602001908152602001600020604051806101000160405290816000820160009054906101000a900473ffffffffffffffffffffffffffffffffffffffff1673ffffffffffffffffffffffffffffffffffffffff1673ffffffffffffffffffffffffffffffffffffffff1681526020016001820154815260200160028201548152602001600382015481526020016004820154815260200160058201548152602001600682015481526020016007820160009054906101000a900460ff1615151515815250509050919050565b610d0f6119ee565b60006004600083815260200190815260200160002090508060070160009054906101000a900460ff16610d77576040517f08c379a0000000000000000000000000000000000000000000000000000000008152600401610d6e906120ba565b60405180910390fd5b620546006203f4808260050154610d8e91906121b7565b610d9891906121b7565b4211610dd9576040517f08c379a0000000000000000000000000000000000000000000000000000000008152600401610dd090612499565b60405180910390fd5b60008160070160006101000a81548160ff02191690831515021790555060008160010154905081600201548260000160009054906101000a900473ffffffffffffffffffffffffffffffffffffffff1673ffffffffffffffffffffffffffffffffffffffff167fba00c67574502629a57c48348479536066b07eaa160b626478467906dc85f5b2846001015484604051610e749291906124b9565b60405180910390a35050610e86611a34565b50565b610e91611967565b6002819080600181540180825580915050600190039060005260206000200160009091909190916101000a81548173ffffffffffffffffffffffffffffffffffffffff021916908373ffffffffffffffffffffffffffffffffffffffff1602179055507ff4c563a3ea86ff1f4275e8c207df0375a51963f2b831b7bf4da8be938d92876c816001600280549050610f2891906121eb565b604051610f36929190612034565b60405180910390a150565b600660009054906101000a900460ff16610f90576040517f08c379a0000000000000000000000000000000000000000000000000000000008152600401610f879061252e565b60405180910390fd5b6002805490508210610fd7576040517f08c379a0000000000000000000000000000000000000000000000000000000008152600401610fce9061259a565b60405180910390fd5b600060028381548110610fed57610fec612005565b5b9060005260206000200160009054906101000a900473ffffffffffffffffffffffffffffffffffffffff1690508073ffffffffffffffffffffffffffffffffffffffff166340c10f1985846040518363ffffffff1660e01b8152600401611055929190612034565b600060405180830381600087803b15801561106f57600080fd5b505af1158015611083573d6000803e3d6000fd5b505050507f67f85f139949a5637dc3e3fbd21d240980d373db94555a72615676a6a10ea6dd8484846040516110ba939291906125ba565b60405180910390a150505050565b6110d0611967565b6110da6000611a3d565b565b60008060009054906101000a900473ffffffffffffffffffffffffffffffffffffffff16905090565b6000806004600084815260200190815260200160002090508060070160009054906101000a900460ff1661116e576040517f08c379a0000000000000000000000000000000000000000000000000000000008152600401611165906120ba565b60405180910390fd5b6000600282600201548154811061118857611187612005565b5b9060005260206000200160009054906101000a900473ffffffffffffffffffffffffffffffffffffffff169050600082600501544211156111de57826004015483600501546111d791906121eb565b90506111f1565b8260040154426111ee91906121eb565b90505b60008273ffffffffffffffffffffffffffffffffffffffff1663efdd7c078560030154846040518363ffffffff1660e01b81526004016112329291906124b9565b602060405180830381865afa15801561124f573d6000803e3d6000fd5b505050506040513d601f19601f820116820180604052508101906112739190612606565b905083600501544211156112d157600084600501544261129391906121eb565b90506203f48081116112b8576002826112ac9190612175565b955050505050506112d9565b6003826112c59190612175565b955050505050506112d9565b809450505050505b919050565b6000806004600084815260200190815260200160002090508060070160009054906101000a900460ff16611347576040517f08c379a000000000000000000000000000000000000000000000000000000000815260040161133e906120ba565b60405180910390fd5b8060050154421061135c576000915050611370565b42816005015461136c91906121eb565b9150505b919050565b600061137f6119ee565b60028054905083106113c6576040517f08c379a00000000000000000000000000000000000000000000000000000000081526004016113bd9061259a565b60405180910390fd5b60003411611409576040517f08c379a00000000000000000000000000000000000000000000000000000000081526004016114009061267f565b60405180910390fd5b662386f26fc10000821015611453576040517f08c379a000000000000000000000000000000000000000000000000000000000815260040161144a906126eb565b60405180910390fd5b60006002848154811061146957611468612005565b5b9060005260206000200160009054906101000a900473ffffffffffffffffffffffffffffffffffffffff16905060008173ffffffffffffffffffffffffffffffffffffffff16631ec7e3456040518163ffffffff1660e01b8152600401602060405180830381865afa1580156114e3573d6000803e3d6000fd5b505050506040513d601f19601f820116820180604052508101906115079190612606565b90506000670de0b6b3a764000082866115209190612175565b61152a919061224e565b905060006064606360968461153f9190612175565b61154991906121b7565b611553919061224e565b905080341015611598576040517f08c379a000000000000000000000000000000000000000000000000000000000815260040161158f90612757565b60405180910390fd5b600360008154809291906115ab90612777565b919050559450600062093a80426115c291906121b7565b90506040518061010001604052803373ffffffffffffffffffffffffffffffffffffffff16815260200134815260200189815260200188815260200142815260200182815260200160008152602001600115158152506004600088815260200190815260200160002060008201518160000160006101000a81548173ffffffffffffffffffffffffffffffffffffffff021916908373ffffffffffffffffffffffffffffffffffffffff1602179055506020820151816001015560408201518160020155606082015181600301556080820151816004015560a0820151816005015560c0820151816006015560e08201518160070160006101000a81548160ff021916908315150217905550905050600560003373ffffffffffffffffffffffffffffffffffffffff1673ffffffffffffffffffffffffffffffffffffffff1681526020019081526020016000208690806001815401808255809150506001900390600052602060002001600090919091909150558473ffffffffffffffffffffffffffffffffffffffff166340c10f1933896040518363ffffffff1660e01b8152600401611772929190612034565b600060405180830381600087803b15801561178c57600080fd5b505af11580156117a0573d6000803e3d6000fd5b50505050873373ffffffffffffffffffffffffffffffffffffffff167f6ac928dde278fc1323b10a16dfbc196aeef1ea86229a7653b0d581edcb4d03708934856040516117ef93929190612364565b60405180910390a35050505050611804611a34565b92915050565b6002818154811061181a57600080fd5b906000526020600020016000915054906101000a900473ffffffffffffffffffffffffffffffffffffffff1681565b600660009054906101000a900460ff1681565b6000600280549050905090565b6000806004600084815260200190815260200160002090508060070160009054906101000a900460ff166118d2576040517f08c379a00000000000000000000000000000000000000000000000000000000081526004016118c9906120ba565b60405180910390fd5b80600501544211915050919050565b6118e9611967565b600073ffffffffffffffffffffffffffffffffffffffff168173ffffffffffffffffffffffffffffffffffffffff160361195b5760006040517f1e4fbdf70000000000000000000000000000000000000000000000000000000081526004016119529190611f06565b60405180910390fd5b61196481611a3d565b50565b61196f611b01565b73ffffffffffffffffffffffffffffffffffffffff1661198d6110dc565b73ffffffffffffffffffffffffffffffffffffffff16146119ec576119b0611b01565b6040517f118cdaa70000000000000000000000000000000000000000000000000000000081526004016119e39190611f06565b60405180910390fd5b565b600260015403611a2a576040517f3ee5aeb500000000000000000000000000000000000000000000000000000000815260040160405180910390fd5b6002600181905550565b60018081905550565b60008060009054906101000a900473ffffffffffffffffffffffffffffffffffffffff169050816000806101000a81548173ffffffffffffffffffffffffffffffffffffffff021916908373ffffffffffffffffffffffffffffffffffffffff1602179055508173ffffffffffffffffffffffffffffffffffffffff168173ffffffffffffffffffffffffffffffffffffffff167f8be0079c531659141344cd1fd0a4f28419497f9722a3daafe3b4186f6b6457e060405160405180910390a35050565b600033905090565b604051806101000160405280600073ffffffffffffffffffffffffffffffffffffffff1681526020016000815260200160008152602001600081526020016000815260200160008152602001600081526020016000151581525090565b600080fd5b600073ffffffffffffffffffffffffffffffffffffffff82169050919050565b6000611b9682611b6b565b9050919050565b611ba681611b8b565b8114611bb157600080fd5b50565b600081359050611bc381611b9d565b92915050565b600060208284031215611bdf57611bde611b66565b5b6000611bed84828501611bb4565b91505092915050565b600081519050919050565b600082825260208201905092915050565b6000819050602082019050919050565b6000819050919050565b611c3581611c22565b82525050565b6000611c478383611c2c565b60208301905092915050565b6000602082019050919050565b6000611c6b82611bf6565b611c758185611c01565b9350611c8083611c12565b8060005b83811015611cb1578151611c988882611c3b565b9750611ca383611c53565b925050600181019050611c84565b5085935050505092915050565b60006020820190508181036000830152611cd88184611c60565b905092915050565b611ce981611c22565b8114611cf457600080fd5b50565b600081359050611d0681611ce0565b92915050565b600060208284031215611d2257611d21611b66565b5b6000611d3084828501611cf7565b91505092915050565b60008115159050919050565b611d4e81611d39565b8114611d5957600080fd5b50565b600081359050611d6b81611d45565b92915050565b600060208284031215611d8757611d86611b66565b5b6000611d9584828501611d5c565b91505092915050565b611da781611c22565b82525050565b6000602082019050611dc26000830184611d9e565b92915050565b611dd181611b8b565b82525050565b611de081611d39565b82525050565b61010082016000820151611dfd6000850182611dc8565b506020820151611e106020850182611c2c565b506040820151611e236040850182611c2c565b506060820151611e366060850182611c2c565b506080820151611e496080850182611c2c565b5060a0820151611e5c60a0850182611c2c565b5060c0820151611e6f60c0850182611c2c565b5060e0820151611e8260e0850182611dd7565b50505050565b600061010082019050611e9e6000830184611de6565b92915050565b600080600060608486031215611ebd57611ebc611b66565b5b6000611ecb86828701611bb4565b9350506020611edc86828701611cf7565b9250506040611eed86828701611cf7565b9150509250925092565b611f0081611b8b565b82525050565b6000602082019050611f1b6000830184611ef7565b92915050565b60008060408385031215611f3857611f37611b66565b5b6000611f4685828601611cf7565b9250506020611f5785828601611cf7565b9150509250929050565b6000819050919050565b6000611f86611f81611f7c84611b6b565b611f61565b611b6b565b9050919050565b6000611f9882611f6b565b9050919050565b6000611faa82611f8d565b9050919050565b611fba81611f9f565b82525050565b6000602082019050611fd56000830184611fb1565b92915050565b611fe481611d39565b82525050565b6000602082019050611fff6000830184611fdb565b92915050565b7f4e487b7100000000000000000000000000000000000000000000000000000000600052603260045260246000fd5b60006040820190506120496000830185611ef7565b6120566020830184611d9e565b9392505050565b600082825260208201905092915050565b7f4c6f616e206973206e6f74206163746976650000000000000000000000000000600082015250565b60006120a460128361205d565b91506120af8261206e565b602082019050919050565b600060208201905081810360008301526120d381612097565b9050919050565b7f4e6f742074686520626f72726f77657200000000000000000000000000000000600082015250565b600061211060108361205d565b915061211b826120da565b602082019050919050565b6000602082019050818103600083015261213f81612103565b9050919050565b7f4e487b7100000000000000000000000000000000000000000000000000000000600052601160045260246000fd5b600061218082611c22565b915061218b83611c22565b925082820261219981611c22565b915082820484148315176121b0576121af612146565b5b5092915050565b60006121c282611c22565b91506121cd83611c22565b92508282019050808211156121e5576121e4612146565b5b92915050565b60006121f682611c22565b915061220183611c22565b925082820390508181111561221957612218612146565b5b92915050565b7f4e487b7100000000000000000000000000000000000000000000000000000000600052601260045260246000fd5b600061225982611c22565b915061226483611c22565b9250826122745761227361221f565b5b828204905092915050565b60006060820190506122946000830186611ef7565b6122a16020830185611ef7565b6122ae6040830184611d9e565b949350505050565b6000815190506122c581611d45565b92915050565b6000602082840312156122e1576122e0611b66565b5b60006122ef848285016122b6565b91505092915050565b7f546f6b656e207472616e73666572206661696c65640000000000000000000000600082015250565b600061232e60158361205d565b9150612339826122f8565b602082019050919050565b6000602082019050818103600083015261235d81612321565b9050919050565b60006060820190506123796000830186611d9e565b6123866020830185611d9e565b6123936040830184611d9e565b949350505050565b600081905092915050565b50565b60006123b660008361239b565b91506123c1826123a6565b600082019050919050565b60006123d7826123a9565b9150819050919050565b7f455448207472616e73666572206661696c656400000000000000000000000000600082015250565b600061241760138361205d565b9150612422826123e1565b602082019050919050565b600060208201905081810360008301526124468161240a565b9050919050565b7f4e6f7420656c696769626c6520666f7220666f72666569747572650000000000600082015250565b6000612483601b8361205d565b915061248e8261244d565b602082019050919050565b600060208201905081810360008301526124b281612476565b9050919050565b60006040820190506124ce6000830185611d9e565b6124db6020830184611d9e565b9392505050565b7f54657374206d6f6465206e6f7420656e61626c65640000000000000000000000600082015250565b600061251860158361205d565b9150612523826124e2565b602082019050919050565b600060208201905081810360008301526125478161250b565b9050919050565b7f496e76616c696420746f6b656e20747970650000000000000000000000000000600082015250565b600061258460128361205d565b915061258f8261254e565b602082019050919050565b600060208201905081810360008301526125b381612577565b9050919050565b60006060820190506125cf6000830186611ef7565b6125dc6020830185611d9e565b6125e96040830184611d9e565b949350505050565b60008151905061260081611ce0565b92915050565b60006020828403121561261c5761261b611b66565b5b600061262a848285016125f1565b91505092915050565b7f4d757374206465706f7369742045544800000000000000000000000000000000600082015250565b600061266960108361205d565b915061267482612633565b602082019050919050565b600060208201905081810360008301526126988161265c565b9050919050565b7f416d6f756e742062656c6f77206d696e696d756d207468726573686f6c640000600082015250565b60006126d5601e8361205d565b91506126e08261269f565b602082019050919050565b60006020820190508181036000830152612704816126c8565b9050919050565b7f496e73756666696369656e7420636f6c6c61746572616c000000000000000000600082015250565b600061274160178361205d565b915061274c8261270b565b602082019050919050565b6000602082019050818103600083015261277081612734565b9050919050565b600061278282611c22565b91507fffffffffffffffffffffffffffffffffffffffffffffffffffffffffffffffff82036127b4576127b3612146565b5b60018201905091905056fea26469706673582212204a4773d1323554b73efb369a3c305be9821a6856d49dbedd8a593b4ffc7a242e64736f6c634300081c0033",
  "linkReferences": {},
  "deployedLinkReferences": {}
}