{
  "_format": "hh-sol-artifact-1",
  "contractName": "StandardLoanToken",
  "sourceName": "contracts/tokens/StandardLoanToken.sol",
  "abi": [
    {
      "inputs": [],
      "stateMutability": "nonpayable",
      "type": "constructor"
    },
    {
      "inputs": [
        {
          "internalType": "address",
          "name": "spender",
          "type": "address"
        },
        {
          "internalType": "uint256",
          "name": "allowance",
          "type": "uint256"
        },
        {
          "internalType": "uint256",
          "name": "needed",
          "type": "uint256"
        }
      ],
      "name": "ERC20InsufficientAllowance",
      "type": "error"
    },
    {
      "inputs": [
        {
          "internalType": "address",
          "name": "sender",
          "type": "address"
        },
        {
          "internalType": "uint256",
          "name": "balance",
          "type": "uint256"
        },
        {
          "internalType": "uint256",
          "name": "needed",
          "type": "uint256"
        }
      ],
      "name": "ERC20InsufficientBalance",
      "type": "error"
    },
    {
      "inputs": [
        {
          "internalType": "address",
          "name": "approver",
          "type": "address"
        }
      ],
      "name": "ERC20InvalidApprover",
      "type": "error"
    },
    {
      "inputs": [
        {
          "internalType": "address",
          "name": "receiver",
          "type": "address"
        }
      ],
      "name": "ERC20InvalidReceiver",
      "type": "error"
    },
    {
      "inputs": [
        {
          "internalType": "address",
          "name": "sender",
          "type": "address"
        }
      ],
      "name": "ERC20InvalidSender",
      "type": "error"
    },
    {
      "inputs": [
        {
          "internalType": "address",
          "name": "spender",
          "type": "address"
        }
      ],
      "name": "ERC20InvalidSpender",
      "type": "error"
    },
    {
      "inputs": [
        {
          "internalType": "address",
          "name": "owner",
          "type": "address"
        }
      ],
      "name": "OwnableInvalidOwner",
      "type": "error"
    },
    {
      "inputs": [
        {
          "internalType": "address",
          "name": "account",
          "type": "address"
        }
      ],
      "name": "OwnableUnauthorizedAccount",
      "type": "error"
    },
    {
      "anonymous": false,
      "inputs": [
        {
          "indexed": true,
          "internalType": "address",
          "name": "owner",
          "type": "address"
        },
        {
          "indexed": true,
          "internalType": "address",
          "name": "spender",
          "type": "address"
        },
        {
          "indexed": false,
          "internalType": "uint256",
          "name": "value",
          "type": "uint256"
        }
      ],
      "name": "Approval",
      "type": "event"
    },
    {
      "anonymous": false,
      "inputs": [
        {
          "indexed": true,
          "internalType": "address",
          "name": "previousOwner",
          "type": "address"
        },
        {
          "indexed": true,
          "internalType": "address",
          "name": "newOwner",
          "type": "address"
        }
      ],
      "name": "OwnershipTransferred",
      "type": "event"
    },
    {
      "anonymous": false,
      "inputs": [
        {
          "indexed": true,
          "internalType": "address",
          "name": "from",
          "type": "address"
        },
        {
          "indexed": true,
          "internalType": "address",
          "name": "to",
          "type": "address"
        },
        {
          "indexed": false,
          "internalType": "uint256",
          "name": "value",
          "type": "uint256"
        }
      ],
      "name": "Transfer",
      "type": "event"
    },
    {
      "inputs": [
        {
          "internalType": "address",
          "name": "owner",
          "type": "address"
        },
        {
          "internalType": "address",
          "name": "spender",
          "type": "address"
        }
      ],
      "name": "allowance",
      "outputs": [
        {
          "internalType": "uint256",
          "name": "",
          "type": "uint256"
        }
      ],
      "stateMutability": "view",
      "type": "function"
    },
    {
      "inputs": [
        {
          "internalType": "address",
          "name": "spender",
          "type": "address"
        },
        {
          "internalType": "uint256",
          "name": "value",
          "type": "uint256"
        }
      ],
      "name": "approve",
      "outputs": [
        {
          "internalType": "bool",
          "name": "",
          "type": "bool"
        }
      ],
      "stateMutability": "nonpayable",
      "type": "function"
    },
    {
      "inputs": [
        {
          "internalType": "address",
          "name": "account",
          "type": "address"
        }
      ],
      "name": "balanceOf",
      "outputs": [
        {
          "internalType": "uint256",
          "name": "",
          "type": "uint256"
        }
      ],
      "stateMutability": "view",
      "type": "function"
    },
    {
      "inputs": [
        {
          "internalType": "address",
          "name": "from",
          "type": "address"
        },
        {
          "internalType": "uint256",
          "name": "amount",
          "type": "uint256"
        }
      ],
      "name": "burn",
      "outputs": [],
      "stateMutability": "nonpayable",
      "type": "function"
    },
    {
      "inputs": [
        {
          "internalType": "uint256",
          "name": "principal",
          "type": "uint256"
        },
        {
          "internalType": "uint256",
          "name": "timeInSeconds",
          "type": "uint256"
        }
      ],
      "name": "calculateInterest",
      "outputs": [
        {
          "internalType": "uint256",
          "name": "",
          "type": "uint256"
        }
      ],
      "stateMutability": "pure",
      "type": "function"
    },
    {
      "inputs": [],
      "name": "decimals",
      "outputs": [
        {
          "internalType": "uint8",
          "name": "",
          "type": "uint8"
        }
      ],
      "stateMutability": "view",
      "type": "function"
    },
    {
      "inputs": [],
      "name": "interestRate",
      "outputs": [
        {
          "internalType": "uint256",
          "name": "",
          "type": "uint256"
        }
      ],
      "stateMutability": "pure",
      "type": "function"
    },
    {
      "inputs": [
        {
          "internalType": "address",
          "name": "to",
          "type": "address"
        },
        {
          "internalType": "uint256",
          "name": "amount",
          "type": "uint256"
        }
      ],
      "name": "mint",
      "outputs": [],
      "stateMutability": "nonpayable",
      "type": "function"
    },
    {
      "inputs": [],
      "name": "name",
      "outputs": [
        {
          "internalType": "string",
          "name": "",
          "type": "string"
        }
      ],
      "stateMutability": "view",
      "type": "function"
    },
    {
      "inputs": [],
      "name": "owner",
      "outputs": [
        {
          "internalType": "address",
          "name": "",
          "type": "address"
        }
      ],
      "stateMutability": "view",
      "type": "function"
    },
    {
      "inputs": [],
      "name": "renounceOwnership",
      "outputs": [],
      "stateMutability": "nonpayable",
      "type": "function"
    },
    {
      "inputs": [],
      "name": "symbol",
      "outputs": [
        {
          "internalType": "string",
          "name": "",
          "type": "string"
        }
      ],
      "stateMutability": "view",
      "type": "function"
    },
    {
      "inputs": [],
      "name": "tokenValue",
      "outputs": [
        {
          "internalType": "uint256",
          "name": "",
          "type": "uint256"
        }
      ],
      "stateMutability": "pure",
      "type": "function"
    },
    {
      "inputs": [],
      "name": "totalSupply",
      "outputs": [
        {
          "internalType": "uint256",
          "name": "",
          "type": "uint256"
        }
      ],
      "stateMutability": "view",
      "type": "function"
    },
    {
      "inputs": [
        {
          "internalType": "address",
          "name": "to",
          "type": "address"
        },
        {
          "internalType": "uint256",
          "name": "value",
          "type": "uint256"
        }
      ],
      "name": "transfer",
      "outputs": [
        {
          "internalType": "bool",
          "name": "",
          "type": "bool"
        }
      ],
      "stateMutability": "nonpayable",
      "type": "function"
    },
    {
      "inputs": [
        {
          "internalType": "address",
          "name": "from",
          "type": "address"
        },
        {
          "internalType": "address",
          "name": "to",
          "type": "address"
        },
        {
          "internalType": "uint256",
          "name": "value",
          "type": "uint256"
        }
      ],
      "name": "transferFrom",
      "outputs": [
        {
          "internalType": "bool",
          "name": "",
          "type": "bool"
        }
      ],
      "stateMutability": "nonpayable",
      "type": "function"
    },
    {
      "inputs": [
        {
          "internalType": "address",
          "name": "newOwner",
          "type": "address"
        }
      ],
      "name": "transferOwnership",
      "outputs": [],
      "stateMutability": "nonpayable",
      "type": "function"
    }
  ],
  "bytecode": "0x608060405234801561001057600080fd5b50336040518060400160405280601381526020017f5374616e64617264204c6f616e20546f6b656e000000000000000000000000008152506040518060400160405280600581526020017f5354444c54000000000000000000000000000000000000000000000000000000815250816003908161008d919061043d565b50806004908161009d919061043d565b505050600073ffffffffffffffffffffffffffffffffffffffff168173ffffffffffffffffffffffffffffffffffffffff16036101125760006040517f1e4fbdf70000000000000000000000000000000000000000000000000000000081526004016101099190610550565b60405180910390fd5b6101218161012760201b60201c565b5061056b565b6000600560009054906101000a900473ffffffffffffffffffffffffffffffffffffffff16905081600560006101000a81548173ffffffffffffffffffffffffffffffffffffffff021916908373ffffffffffffffffffffffffffffffffffffffff1602179055508173ffffffffffffffffffffffffffffffffffffffff168173ffffffffffffffffffffffffffffffffffffffff167f8be0079c531659141344cd1fd0a4f28419497f9722a3daafe3b4186f6b6457e060405160405180910390a35050565b600081519050919050565b7f4e487b7100000000000000000000000000000000000000000000000000000000600052604160045260246000fd5b7f4e487b7100000000000000000000000000000000000000000000000000000000600052602260045260246000fd5b6000600282049050600182168061026e57607f821691505b60208210810361028157610280610227565b5b50919050565b60008190508160005260206000209050919050565b60006020601f8301049050919050565b600082821b905092915050565b6000600883026102e97fffffffffffffffffffffffffffffffffffffffffffffffffffffffffffffffff826102ac565b6102f386836102ac565b95508019841693508086168417925050509392505050565b6000819050919050565b6000819050919050565b600061033a6103356103308461030b565b610315565b61030b565b9050919050565b6000819050919050565b6103548361031f565b61036861036082610341565b8484546102b9565b825550505050565b600090565b61037d610370565b61038881848461034b565b505050565b5b818110156103ac576103a1600082610375565b60018101905061038e565b5050565b601f8211156103f1576103c281610287565b6103cb8461029c565b810160208510156103da578190505b6103ee6103e68561029c565b83018261038d565b50505b505050565b600082821c905092915050565b6000610414600019846008026103f6565b1980831691505092915050565b600061042d8383610403565b9150826002028217905092915050565b610446826101ed565b67ffffffffffffffff81111561045f5761045e6101f8565b5b6104698254610256565b6104748282856103b0565b600060209050601f8311600181146104a75760008415610495578287015190505b61049f8582610421565b865550610507565b601f1984166104b586610287565b60005b828110156104dd578489015182556001820191506020850194506020810190506104b8565b868310156104fa57848901516104f6601f891682610403565b8355505b6001600288020188555050505b505050505050565b600073ffffffffffffffffffffffffffffffffffffffff82169050919050565b600061053a8261050f565b9050919050565b61054a8161052f565b82525050565b60006020820190506105656000830184610541565b92915050565b6114578061057a6000396000f3fe608060405234801561001057600080fd5b506004361061010b5760003560e01c8063715018a6116100a25780639dc29fac116100715780639dc29fac14610298578063a9059cbb146102b4578063dd62ed3e146102e4578063efdd7c0714610314578063f2fde38b146103445761010b565b8063715018a6146102345780637c3a00fd1461023e5780638da5cb5b1461025c57806395d89b411461027a5761010b565b806323b872dd116100de57806323b872dd1461019a578063313ce567146101ca57806340c10f19146101e857806370a08231146102045761010b565b806306fdde0314610110578063095ea7b31461012e57806318160ddd1461015e5780631ec7e3451461017c575b600080fd5b610118610360565b6040516101259190610fc9565b60405180910390f35b61014860048036038101906101439190611084565b61036f565b60405161015591906110df565b60405180910390f35b610166610392565b6040516101739190611109565b60405180910390f35b61018461039c565b6040516101919190611109565b60405180910390f35b6101b460048036038101906101af9190611124565b6103ac565b6040516101c191906110df565b60405180910390f35b6101d26103db565b6040516101df9190611193565b60405180910390f35b61020260048036038101906101fd9190611084565b6103ea565b005b61021e600480360381019061021991906111ae565b610400565b60405161022b9190611109565b60405180910390f35b61023c610448565b005b61024661045c565b6040516102539190611109565b60405180910390f35b610264610466565b60405161027191906111ea565b60405180910390f35b610282610490565b60405161028f9190610fc9565b60405180910390f35b6102b260048036038101906102ad9190611084565b61049f565b005b6102ce60048036038101906102c99190611084565b6104b5565b6040516102db91906110df565b60405180910390f35b6102fe60048036038101906102f99190611205565b6104d8565b60405161030b9190611109565b60405180910390f35b61032e60048036038101906103299190611245565b61055f565b60405161033b9190611109565b60405180910390f35b61035e600480360381019061035991906111ae565b610597565b005b606061036a61061d565b905090565b60008061037a6106af565b90506103878185856106b7565b600191505092915050565b6000600254905090565b60006706f05b59d3b20000905090565b6000806103b76106af565b90506103c48582856106c9565b6103cf85858561075d565b60019150509392505050565b60006103e5610851565b905090565b6103f261085a565b6103fc82826108e1565b5050565b60008060008373ffffffffffffffffffffffffffffffffffffffff1673ffffffffffffffffffffffffffffffffffffffff168152602001908152602001600020549050919050565b61045061085a565b61045a6000610963565b565b6000610320905090565b6000600560009054906101000a900473ffffffffffffffffffffffffffffffffffffffff16905090565b606061049a610a29565b905090565b6104a761085a565b6104b18282610abb565b5050565b6000806104c06106af565b90506104cd81858561075d565b600191505092915050565b6000600160008473ffffffffffffffffffffffffffffffffffffffff1673ffffffffffffffffffffffffffffffffffffffff16815260200190815260200160002060008373ffffffffffffffffffffffffffffffffffffffff1673ffffffffffffffffffffffffffffffffffffffff16815260200190815260200160002054905092915050565b60008064496cebb8008461032061057691906112b4565b6105809190611325565b9050828161058e91906112b4565b91505092915050565b61059f61085a565b600073ffffffffffffffffffffffffffffffffffffffff168173ffffffffffffffffffffffffffffffffffffffff16036106115760006040517f1e4fbdf700000000000000000000000000000000000000000000000000000000815260040161060891906111ea565b60405180910390fd5b61061a81610963565b50565b60606003805461062c90611385565b80601f016020809104026020016040519081016040528092919081815260200182805461065890611385565b80156106a55780601f1061067a576101008083540402835291602001916106a5565b820191906000526020600020905b81548152906001019060200180831161068857829003601f168201915b5050505050905090565b600033905090565b6106c48383836001610b3d565b505050565b60006106d584846104d8565b90507fffffffffffffffffffffffffffffffffffffffffffffffffffffffffffffffff81146107575781811015610747578281836040517ffb8f41b200000000000000000000000000000000000000000000000000000000815260040161073e939291906113b6565b60405180910390fd5b61075684848484036000610b3d565b5b50505050565b600073ffffffffffffffffffffffffffffffffffffffff168373ffffffffffffffffffffffffffffffffffffffff16036107cf5760006040517f96c6fd1e0000000000000000000000000000000000000000000000000000000081526004016107c691906111ea565b60405180910390fd5b600073ffffffffffffffffffffffffffffffffffffffff168273ffffffffffffffffffffffffffffffffffffffff16036108415760006040517fec442f0500000000000000000000000000000000000000000000000000000000815260040161083891906111ea565b60405180910390fd5b61084c838383610d14565b505050565b60006012905090565b6108626106af565b73ffffffffffffffffffffffffffffffffffffffff16610880610466565b73ffffffffffffffffffffffffffffffffffffffff16146108df576108a36106af565b6040517f118cdaa70000000000000000000000000000000000000000000000000000000081526004016108d691906111ea565b60405180910390fd5b565b600073ffffffffffffffffffffffffffffffffffffffff168273ffffffffffffffffffffffffffffffffffffffff16036109535760006040517fec442f0500000000000000000000000000000000000000000000000000000000815260040161094a91906111ea565b60405180910390fd5b61095f60008383610d14565b5050565b6000600560009054906101000a900473ffffffffffffffffffffffffffffffffffffffff16905081600560006101000a81548173ffffffffffffffffffffffffffffffffffffffff021916908373ffffffffffffffffffffffffffffffffffffffff1602179055508173ffffffffffffffffffffffffffffffffffffffff168173ffffffffffffffffffffffffffffffffffffffff167f8be0079c531659141344cd1fd0a4f28419497f9722a3daafe3b4186f6b6457e060405160405180910390a35050565b606060048054610a3890611385565b80601f0160208091040260200160405190810160405280929190818152602001828054610a6490611385565b8015610ab15780601f10610a8657610100808354040283529160200191610ab1565b820191906000526020600020905b815481529060010190602001808311610a9457829003601f168201915b5050505050905090565b600073ffffffffffffffffffffffffffffffffffffffff168273ffffffffffffffffffffffffffffffffffffffff1603610b2d5760006040517f96c6fd1e000000000000000000000000000000000000000000000000000000008152600401610b2491906111ea565b60405180910390fd5b610b3982600083610d14565b5050565b600073ffffffffffffffffffffffffffffffffffffffff168473ffffffffffffffffffffffffffffffffffffffff1603610baf5760006040517fe602df05000000000000000000000000000000000000000000000000000000008152600401610ba691906111ea565b60405180910390fd5b600073ffffffffffffffffffffffffffffffffffffffff168373ffffffffffffffffffffffffffffffffffffffff1603610c215760006040517f94280d62000000000000000000000000000000000000000000000000000000008152600401610c1891906111ea565b60405180910390fd5b81600160008673ffffffffffffffffffffffffffffffffffffffff1673ffffffffffffffffffffffffffffffffffffffff16815260200190815260200160002060008573ffffffffffffffffffffffffffffffffffffffff1673ffffffffffffffffffffffffffffffffffffffff168152602001908152602001600020819055508015610d0e578273ffffffffffffffffffffffffffffffffffffffff168473ffffffffffffffffffffffffffffffffffffffff167f8c5be1e5ebec7d5bd14f71427d1e84f3dd0314c0f7b2291e5b200ac8c7c3b92584604051610d059190611109565b60405180910390a35b50505050565b600073ffffffffffffffffffffffffffffffffffffffff168373ffffffffffffffffffffffffffffffffffffffff1603610d66578060026000828254610d5a91906113ed565b92505081905550610e39565b60008060008573ffffffffffffffffffffffffffffffffffffffff1673ffffffffffffffffffffffffffffffffffffffff16815260200190815260200160002054905081811015610df2578381836040517fe450d38c000000000000000000000000000000000000000000000000000000008152600401610de9939291906113b6565b60405180910390fd5b8181036000808673ffffffffffffffffffffffffffffffffffffffff1673ffffffffffffffffffffffffffffffffffffffff16815260200190815260200160002081905550505b600073ffffffffffffffffffffffffffffffffffffffff168273ffffffffffffffffffffffffffffffffffffffff1603610e825780600260008282540392505081905550610ecf565b806000808473ffffffffffffffffffffffffffffffffffffffff1673ffffffffffffffffffffffffffffffffffffffff168152602001908152602001600020600082825401925050819055505b8173ffffffffffffffffffffffffffffffffffffffff168373ffffffffffffffffffffffffffffffffffffffff167fddf252ad1be2c89b69c2b068fc378daa952ba7f163c4a11628f55a4df523b3ef83604051610f2c9190611109565b60405180910390a3505050565b600081519050919050565b600082825260208201905092915050565b60005b83811015610f73578082015181840152602081019050610f58565b60008484015250505050565b6000601f19601f8301169050919050565b6000610f9b82610f39565b610fa58185610f44565b9350610fb5818560208601610f55565b610fbe81610f7f565b840191505092915050565b60006020820190508181036000830152610fe38184610f90565b905092915050565b600080fd5b600073ffffffffffffffffffffffffffffffffffffffff82169050919050565b600061101b82610ff0565b9050919050565b61102b81611010565b811461103657600080fd5b50565b60008135905061104881611022565b92915050565b6000819050919050565b6110618161104e565b811461106c57600080fd5b50565b60008135905061107e81611058565b92915050565b6000806040838503121561109b5761109a610feb565b5b60006110a985828601611039565b92505060206110ba8582860161106f565b9150509250929050565b60008115159050919050565b6110d9816110c4565b82525050565b60006020820190506110f460008301846110d0565b92915050565b6111038161104e565b82525050565b600060208201905061111e60008301846110fa565b92915050565b60008060006060848603121561113d5761113c610feb565b5b600061114b86828701611039565b935050602061115c86828701611039565b925050604061116d8682870161106f565b9150509250925092565b600060ff82169050919050565b61118d81611177565b82525050565b60006020820190506111a86000830184611184565b92915050565b6000602082840312156111c4576111c3610feb565b5b60006111d284828501611039565b91505092915050565b6111e481611010565b82525050565b60006020820190506111ff60008301846111db565b92915050565b6000806040838503121561121c5761121b610feb565b5b600061122a85828601611039565b925050602061123b85828601611039565b9150509250929050565b6000806040838503121561125c5761125b610feb565b5b600061126a8582860161106f565b925050602061127b8582860161106f565b9150509250929050565b7f4e487b7100000000000000000000000000000000000000000000000000000000600052601160045260246000fd5b60006112bf8261104e565b91506112ca8361104e565b92508282026112d88161104e565b915082820484148315176112ef576112ee611285565b5b5092915050565b7f4e487b7100000000000000000000000000000000000000000000000000000000600052601260045260246000fd5b60006113308261104e565b915061133b8361104e565b92508261134b5761134a6112f6565b5b828204905092915050565b7f4e487b7100000000000000000000000000000000000000000000000000000000600052602260045260246000fd5b6000600282049050600182168061139d57607f821691505b6020821081036113b0576113af611356565b5b50919050565b60006060820190506113cb60008301866111db565b6113d860208301856110fa565b6113e560408301846110fa565b949350505050565b60006113f88261104e565b91506114038361104e565b925082820190508082111561141b5761141a611285565b5b9291505056fea2646970667358221220221a82e4aea800ae5bf7df5f3c6228ef3164ab0c812b7cf8cbd945a4726efd9e64736f6c634300081c0033",
  "linkReferences": {},
  "deployedLinkReferences": {}
}